{
	"data": {
		"bytecode": {
			"linkReferences": {},
			"object": "608060405234801561001057600080fd5b5060405161169038038061169083398101604081905261002f916100b6565b61003833610066565b600180546001600160a01b039092166001600160a01b031992831617905560088054909116331790556100e6565b600080546001600160a01b038381166001600160a01b0319831681178455604051919092169283917f8be0079c531659141344cd1fd0a4f28419497f9722a3daafe3b4186f6b6457e09190a35050565b6000602082840312156100c857600080fd5b81516001600160a01b03811681146100df57600080fd5b9392505050565b61159b806100f56000396000f3fe6080604052600436106101125760003560e01c80638b0414d5116100a5578063bf8ebd8511610074578063d0e30db011610059578063d0e30db01461032e578063d4b7153e14610336578063f2fde38b1461035657600080fd5b8063bf8ebd85146102e1578063ce2f2c251461030157600080fd5b80638b0414d5146102605780638c574b48146102805780638da5cb5b146102a0578063968ed600146102cb57600080fd5b806347ccca02116100e157806347ccca02146101c3578063715018a614610215578063793e91fa1461022a57806385feeb231461024a57600080fd5b80632c110641146101365780633606880d146101765780633ccfd60b1461019857806341c61383146101ad57600080fd5b36610131573460026000828254610129919061121b565b925050819055005b600080fd5b34801561014257600080fd5b5061016361015136600461122e565b60076020526000908152604090205481565b6040519081526020015b60405180910390f35b34801561018257600080fd5b50610196610191366004611279565b610376565b005b3480156101a457600080fd5b50610196610443565b3480156101b957600080fd5b5061016360035481565b3480156101cf57600080fd5b506001546101f09073ffffffffffffffffffffffffffffffffffffffff1681565b60405173ffffffffffffffffffffffffffffffffffffffff909116815260200161016d565b34801561022157600080fd5b50610196610528565b34801561023657600080fd5b5061016361024536600461131b565b61053c565b34801561025657600080fd5b5061016360055481565b34801561026c57600080fd5b5061019661027b366004611279565b6107d0565b34801561028c57600080fd5b5061019661029b36600461131b565b610898565b3480156102ac57600080fd5b5060005473ffffffffffffffffffffffffffffffffffffffff166101f0565b3480156102d757600080fd5b5061016360025481565b3480156102ed57600080fd5b506101636102fc366004611279565b610c8b565b34801561030d57600080fd5b5061016361031c366004611279565b60046020526000908152604090205481565b610196610d20565b34801561034257600080fd5b506101636103513660046113d3565b610d39565b34801561036257600080fd5b50610196610371366004611279565b611069565b60085473ffffffffffffffffffffffffffffffffffffffff1633146103fc576040517f08c379a000000000000000000000000000000000000000000000000000000000815260206004820152600260248201527f6e6f00000000000000000000000000000000000000000000000000000000000060448201526064015b60405180910390fd5b600180547fffffffffffffffffffffffff00000000000000000000000000000000000000001673ffffffffffffffffffffffffffffffffffffffff92909216919091179055565b60085473ffffffffffffffffffffffffffffffffffffffff1633146104c4576040517f08c379a000000000000000000000000000000000000000000000000000000000815260206004820152600260248201527f6e6f00000000000000000000000000000000000000000000000000000000000060448201526064016103f3565b60085460405173ffffffffffffffffffffffffffffffffffffffff90911690615e4a9047906000818181858888f193505050503d8060008114610523576040519150601f19603f3d011682016040523d82523d6000602084013e505050565b505050565b6105306110f6565b61053a6000611177565b565b600080805b84518110156107a357600085828151811061055e5761055e611463565b60209081029190910101516001546040517f6352211e0000000000000000000000000000000000000000000000000000000081526004810183905291925073ffffffffffffffffffffffffffffffffffffffff87811692911690636352211e90602401602060405180830381865afa1580156105de573d6000803e3d6000fd5b505050506040513d601f19601f820116820180604052508101906106029190611492565b73ffffffffffffffffffffffffffffffffffffffff16146106a5576040517f08c379a000000000000000000000000000000000000000000000000000000000815260206004820152602f60248201527f596f75206d75737420626520746865206f776e6572206f6620616e204e46542060448201527f746f20636c61696d2066756e64732e000000000000000000000000000000000060648201526084016103f3565b6000818152600760205260408120546106be90476114af565b111561079057600160009054906101000a900473ffffffffffffffffffffffffffffffffffffffff1673ffffffffffffffffffffffffffffffffffffffff166318160ddd6040518163ffffffff1660e01b8152600401602060405180830381865afa158015610731573d6000803e3d6000fd5b505050506040513d601f19601f8201168201806040525081019061075591906114c2565b60008281526007602052604090205461076e90476114af565b6107799060016114db565b61078391906114f2565b61078d908461121b565b92505b508061079b8161152d565b915050610541565b506107af6064826114f2565b6107ba9060026114db565b6107c69061567a61121b565b9150505b92915050565b60085473ffffffffffffffffffffffffffffffffffffffff163314610851576040517f08c379a000000000000000000000000000000000000000000000000000000000815260206004820152600260248201527f6e6f00000000000000000000000000000000000000000000000000000000000060448201526064016103f3565b600680547fffffffffffffffffffffffff00000000000000000000000000000000000000001673ffffffffffffffffffffffffffffffffffffffff92909216919091179055565b6000805b8351811015610b0f5760008482815181106108b9576108b9611463565b60209081029190910101516001546040517f6352211e0000000000000000000000000000000000000000000000000000000081526004810183905291925073ffffffffffffffffffffffffffffffffffffffff86811692911690636352211e90602401602060405180830381865afa158015610939573d6000803e3d6000fd5b505050506040513d601f19601f8201168201806040525081019061095d9190611492565b73ffffffffffffffffffffffffffffffffffffffff1614610a00576040517f08c379a000000000000000000000000000000000000000000000000000000000815260206004820152602f60248201527f596f75206d75737420626520746865206f776e6572206f6620616e204e46542060448201527f746f20636c61696d2066756e64732e000000000000000000000000000000000060648201526084016103f3565b600081815260076020526040812054610a1990476114af565b1115610afc57600160009054906101000a900473ffffffffffffffffffffffffffffffffffffffff1673ffffffffffffffffffffffffffffffffffffffff166318160ddd6040518163ffffffff1660e01b8152600401602060405180830381865afa158015610a8c573d6000803e3d6000fd5b505050506040513d601f19601f82011682018060405250810190610ab091906114c2565b600082815260076020526040902054610ac990476114af565b610ad49060016114db565b610ade91906114f2565b610ae8908461121b565b600082815260076020526040902047905592505b5080610b078161152d565b91505061089c565b50610b1c61567a826114af565b90506201036e8111610b8a576040517f08c379a000000000000000000000000000000000000000000000000000000000815260206004820152601160248201527f4e6f2066756e647320746f20636c61696d00000000000000000000000000000060448201526064016103f3565b8060036000828254610b9c919061121b565b90915550339050610bae6064836114f2565b610bb99060026114db565b610bc59061567a61121b565b60405161567a91906000818181858888f193505050503d8060008114610c07576040519150601f19603f3d011682016040523d82523d6000602084013e610c0c565b606091505b50505073ffffffffffffffffffffffffffffffffffffffff8216610c316064836114f2565b610c3c9060626114db565b60405161567a91906000818181858888f193505050503d8060008114610c7e576040519150601f19603f3d011682016040523d82523d6000602084013e610c83565b606091505b505050505050565b6001546040517f70a0823100000000000000000000000000000000000000000000000000000000815273ffffffffffffffffffffffffffffffffffffffff838116600483015260009216906370a0823190602401602060405180830381865afa158015610cfc573d6000803e3d6000fd5b505050506040513d601f19601f820116820180604052508101906107ca91906114c2565b3460026000828254610d32919061121b565b9091555050565b600080805b6001811015610f9a576000858260018110610d5b57610d5b611463565b60200201516001546040517f6352211e0000000000000000000000000000000000000000000000000000000081526004810183905291925073ffffffffffffffffffffffffffffffffffffffff87811692911690636352211e90602401602060405180830381865afa158015610dd5573d6000803e3d6000fd5b505050506040513d601f19601f82011682018060405250810190610df99190611492565b73ffffffffffffffffffffffffffffffffffffffff1614610e9c576040517f08c379a000000000000000000000000000000000000000000000000000000000815260206004820152602f60248201527f596f75206d75737420626520746865206f776e6572206f6620616e204e46542060448201527f746f20636c61696d2066756e64732e000000000000000000000000000000000060648201526084016103f3565b600081815260076020526040812054610eb590476114af565b1115610f8757600160009054906101000a900473ffffffffffffffffffffffffffffffffffffffff1673ffffffffffffffffffffffffffffffffffffffff166318160ddd6040518163ffffffff1660e01b8152600401602060405180830381865afa158015610f28573d6000803e3d6000fd5b505050506040513d601f19601f82011682018060405250810190610f4c91906114c2565b600082815260076020526040902054610f6590476114af565b610f709060016114db565b610f7a91906114f2565b610f84908461121b565b92505b5080610f928161152d565b915050610d3e565b50610fa761567a826114af565b9050600460008473ffffffffffffffffffffffffffffffffffffffff1673ffffffffffffffffffffffffffffffffffffffff1681526020019081526020016000205460056000828254610ffa91906114af565b9091555061100b90506064826114f2565b6110169060026114db565b6110229061567a61121b565b73ffffffffffffffffffffffffffffffffffffffff841660009081526004602052604081208290556005805490919061105c90849061121b565b9091555090949350505050565b60085473ffffffffffffffffffffffffffffffffffffffff1633146110ea576040517f08c379a000000000000000000000000000000000000000000000000000000000815260206004820152600260248201527f6e6f00000000000000000000000000000000000000000000000000000000000060448201526064016103f3565b6110f381611177565b50565b60005473ffffffffffffffffffffffffffffffffffffffff16331461053a576040517f08c379a000000000000000000000000000000000000000000000000000000000815260206004820181905260248201527f4f776e61626c653a2063616c6c6572206973206e6f7420746865206f776e657260448201526064016103f3565b6000805473ffffffffffffffffffffffffffffffffffffffff8381167fffffffffffffffffffffffff0000000000000000000000000000000000000000831681178455604051919092169283917f8be0079c531659141344cd1fd0a4f28419497f9722a3daafe3b4186f6b6457e09190a35050565b7f4e487b7100000000000000000000000000000000000000000000000000000000600052601160045260246000fd5b808201808211156107ca576107ca6111ec565b60006020828403121561124057600080fd5b5035919050565b73ffffffffffffffffffffffffffffffffffffffff811681146110f357600080fd5b803561127481611247565b919050565b60006020828403121561128b57600080fd5b813561129681611247565b9392505050565b7f4e487b7100000000000000000000000000000000000000000000000000000000600052604160045260246000fd5b604051601f82017fffffffffffffffffffffffffffffffffffffffffffffffffffffffffffffffe016810167ffffffffffffffff811182821017156113135761131361129d565b604052919050565b6000806040838503121561132e57600080fd5b823567ffffffffffffffff8082111561134657600080fd5b818501915085601f83011261135a57600080fd5b813560208282111561136e5761136e61129d565b8160051b925061137f8184016112cc565b828152928401810192818101908985111561139957600080fd5b948201945b848610156113b75785358252948201949082019061139e565b96506113c69050878201611269565b9450505050509250929050565b600080604083850312156113e657600080fd5b83601f8401126113f557600080fd5b604051602080820182811067ffffffffffffffff821117156114195761141961129d565b604052818582018781111561142d57600080fd5b865b81811015611446578035835291830191830161142f565b50929450509035905061145881611247565b809150509250929050565b7f4e487b7100000000000000000000000000000000000000000000000000000000600052603260045260246000fd5b6000602082840312156114a457600080fd5b815161129681611247565b818103818111156107ca576107ca6111ec565b6000602082840312156114d457600080fd5b5051919050565b80820281158282048414176107ca576107ca6111ec565b600082611528577f4e487b7100000000000000000000000000000000000000000000000000000000600052601260045260246000fd5b500490565b60007fffffffffffffffffffffffffffffffffffffffffffffffffffffffffffffffff820361155e5761155e6111ec565b506001019056fea2646970667358221220850fee8905439e0f78af466ce5aa6ac7f4b3886951f90c030e6f22d08f70116c64736f6c63430008110033",
			"opcodes": "PUSH1 0x80 PUSH1 0x40 MSTORE CALLVALUE DUP1 ISZERO PUSH2 0x10 JUMPI PUSH1 0x0 DUP1 REVERT JUMPDEST POP PUSH1 0x40 MLOAD PUSH2 0x1690 CODESIZE SUB DUP1 PUSH2 0x1690 DUP4 CODECOPY DUP2 ADD PUSH1 0x40 DUP2 SWAP1 MSTORE PUSH2 0x2F SWAP2 PUSH2 0xB6 JUMP JUMPDEST PUSH2 0x38 CALLER PUSH2 0x66 JUMP JUMPDEST PUSH1 0x1 DUP1 SLOAD PUSH1 0x1 PUSH1 0x1 PUSH1 0xA0 SHL SUB SWAP1 SWAP3 AND PUSH1 0x1 PUSH1 0x1 PUSH1 0xA0 SHL SUB NOT SWAP3 DUP4 AND OR SWAP1 SSTORE PUSH1 0x8 DUP1 SLOAD SWAP1 SWAP2 AND CALLER OR SWAP1 SSTORE PUSH2 0xE6 JUMP JUMPDEST PUSH1 0x0 DUP1 SLOAD PUSH1 0x1 PUSH1 0x1 PUSH1 0xA0 SHL SUB DUP4 DUP2 AND PUSH1 0x1 PUSH1 0x1 PUSH1 0xA0 SHL SUB NOT DUP4 AND DUP2 OR DUP5 SSTORE PUSH1 0x40 MLOAD SWAP2 SWAP1 SWAP3 AND SWAP3 DUP4 SWAP2 PUSH32 0x8BE0079C531659141344CD1FD0A4F28419497F9722A3DAAFE3B4186F6B6457E0 SWAP2 SWAP1 LOG3 POP POP JUMP JUMPDEST PUSH1 0x0 PUSH1 0x20 DUP3 DUP5 SUB SLT ISZERO PUSH2 0xC8 JUMPI PUSH1 0x0 DUP1 REVERT JUMPDEST DUP2 MLOAD PUSH1 0x1 PUSH1 0x1 PUSH1 0xA0 SHL SUB DUP2 AND DUP2 EQ PUSH2 0xDF JUMPI PUSH1 0x0 DUP1 REVERT JUMPDEST SWAP4 SWAP3 POP POP POP JUMP JUMPDEST PUSH2 0x159B DUP1 PUSH2 0xF5 PUSH1 0x0 CODECOPY PUSH1 0x0 RETURN INVALID PUSH1 0x80 PUSH1 0x40 MSTORE PUSH1 0x4 CALLDATASIZE LT PUSH2 0x112 JUMPI PUSH1 0x0 CALLDATALOAD PUSH1 0xE0 SHR DUP1 PUSH4 0x8B0414D5 GT PUSH2 0xA5 JUMPI DUP1 PUSH4 0xBF8EBD85 GT PUSH2 0x74 JUMPI DUP1 PUSH4 0xD0E30DB0 GT PUSH2 0x59 JUMPI DUP1 PUSH4 0xD0E30DB0 EQ PUSH2 0x32E JUMPI DUP1 PUSH4 0xD4B7153E EQ PUSH2 0x336 JUMPI DUP1 PUSH4 0xF2FDE38B EQ PUSH2 0x356 JUMPI PUSH1 0x0 DUP1 REVERT JUMPDEST DUP1 PUSH4 0xBF8EBD85 EQ PUSH2 0x2E1 JUMPI DUP1 PUSH4 0xCE2F2C25 EQ PUSH2 0x301 JUMPI PUSH1 0x0 DUP1 REVERT JUMPDEST DUP1 PUSH4 0x8B0414D5 EQ PUSH2 0x260 JUMPI DUP1 PUSH4 0x8C574B48 EQ PUSH2 0x280 JUMPI DUP1 PUSH4 0x8DA5CB5B EQ PUSH2 0x2A0 JUMPI DUP1 PUSH4 0x968ED600 EQ PUSH2 0x2CB JUMPI PUSH1 0x0 DUP1 REVERT JUMPDEST DUP1 PUSH4 0x47CCCA02 GT PUSH2 0xE1 JUMPI DUP1 PUSH4 0x47CCCA02 EQ PUSH2 0x1C3 JUMPI DUP1 PUSH4 0x715018A6 EQ PUSH2 0x215 JUMPI DUP1 PUSH4 0x793E91FA EQ PUSH2 0x22A JUMPI DUP1 PUSH4 0x85FEEB23 EQ PUSH2 0x24A JUMPI PUSH1 0x0 DUP1 REVERT JUMPDEST DUP1 PUSH4 0x2C110641 EQ PUSH2 0x136 JUMPI DUP1 PUSH4 0x3606880D EQ PUSH2 0x176 JUMPI DUP1 PUSH4 0x3CCFD60B EQ PUSH2 0x198 JUMPI DUP1 PUSH4 0x41C61383 EQ PUSH2 0x1AD JUMPI PUSH1 0x0 DUP1 REVERT JUMPDEST CALLDATASIZE PUSH2 0x131 JUMPI CALLVALUE PUSH1 0x2 PUSH1 0x0 DUP3 DUP3 SLOAD PUSH2 0x129 SWAP2 SWAP1 PUSH2 0x121B JUMP JUMPDEST SWAP3 POP POP DUP2 SWAP1 SSTORE STOP JUMPDEST PUSH1 0x0 DUP1 REVERT JUMPDEST CALLVALUE DUP1 ISZERO PUSH2 0x142 JUMPI PUSH1 0x0 DUP1 REVERT JUMPDEST POP PUSH2 0x163 PUSH2 0x151 CALLDATASIZE PUSH1 0x4 PUSH2 0x122E JUMP JUMPDEST PUSH1 0x7 PUSH1 0x20 MSTORE PUSH1 0x0 SWAP1 DUP2 MSTORE PUSH1 0x40 SWAP1 KECCAK256 SLOAD DUP2 JUMP JUMPDEST PUSH1 0x40 MLOAD SWAP1 DUP2 MSTORE PUSH1 0x20 ADD JUMPDEST PUSH1 0x40 MLOAD DUP1 SWAP2 SUB SWAP1 RETURN JUMPDEST CALLVALUE DUP1 ISZERO PUSH2 0x182 JUMPI PUSH1 0x0 DUP1 REVERT JUMPDEST POP PUSH2 0x196 PUSH2 0x191 CALLDATASIZE PUSH1 0x4 PUSH2 0x1279 JUMP JUMPDEST PUSH2 0x376 JUMP JUMPDEST STOP JUMPDEST CALLVALUE DUP1 ISZERO PUSH2 0x1A4 JUMPI PUSH1 0x0 DUP1 REVERT JUMPDEST POP PUSH2 0x196 PUSH2 0x443 JUMP JUMPDEST CALLVALUE DUP1 ISZERO PUSH2 0x1B9 JUMPI PUSH1 0x0 DUP1 REVERT JUMPDEST POP PUSH2 0x163 PUSH1 0x3 SLOAD DUP2 JUMP JUMPDEST CALLVALUE DUP1 ISZERO PUSH2 0x1CF JUMPI PUSH1 0x0 DUP1 REVERT JUMPDEST POP PUSH1 0x1 SLOAD PUSH2 0x1F0 SWAP1 PUSH20 0xFFFFFFFFFFFFFFFFFFFFFFFFFFFFFFFFFFFFFFFF AND DUP2 JUMP JUMPDEST PUSH1 0x40 MLOAD PUSH20 0xFFFFFFFFFFFFFFFFFFFFFFFFFFFFFFFFFFFFFFFF SWAP1 SWAP2 AND DUP2 MSTORE PUSH1 0x20 ADD PUSH2 0x16D JUMP JUMPDEST CALLVALUE DUP1 ISZERO PUSH2 0x221 JUMPI PUSH1 0x0 DUP1 REVERT JUMPDEST POP PUSH2 0x196 PUSH2 0x528 JUMP JUMPDEST CALLVALUE DUP1 ISZERO PUSH2 0x236 JUMPI PUSH1 0x0 DUP1 REVERT JUMPDEST POP PUSH2 0x163 PUSH2 0x245 CALLDATASIZE PUSH1 0x4 PUSH2 0x131B JUMP JUMPDEST PUSH2 0x53C JUMP JUMPDEST CALLVALUE DUP1 ISZERO PUSH2 0x256 JUMPI PUSH1 0x0 DUP1 REVERT JUMPDEST POP PUSH2 0x163 PUSH1 0x5 SLOAD DUP2 JUMP JUMPDEST CALLVALUE DUP1 ISZERO PUSH2 0x26C JUMPI PUSH1 0x0 DUP1 REVERT JUMPDEST POP PUSH2 0x196 PUSH2 0x27B CALLDATASIZE PUSH1 0x4 PUSH2 0x1279 JUMP JUMPDEST PUSH2 0x7D0 JUMP JUMPDEST CALLVALUE DUP1 ISZERO PUSH2 0x28C JUMPI PUSH1 0x0 DUP1 REVERT JUMPDEST POP PUSH2 0x196 PUSH2 0x29B CALLDATASIZE PUSH1 0x4 PUSH2 0x131B JUMP JUMPDEST PUSH2 0x898 JUMP JUMPDEST CALLVALUE DUP1 ISZERO PUSH2 0x2AC JUMPI PUSH1 0x0 DUP1 REVERT JUMPDEST POP PUSH1 0x0 SLOAD PUSH20 0xFFFFFFFFFFFFFFFFFFFFFFFFFFFFFFFFFFFFFFFF AND PUSH2 0x1F0 JUMP JUMPDEST CALLVALUE DUP1 ISZERO PUSH2 0x2D7 JUMPI PUSH1 0x0 DUP1 REVERT JUMPDEST POP PUSH2 0x163 PUSH1 0x2 SLOAD DUP2 JUMP JUMPDEST CALLVALUE DUP1 ISZERO PUSH2 0x2ED JUMPI PUSH1 0x0 DUP1 REVERT JUMPDEST POP PUSH2 0x163 PUSH2 0x2FC CALLDATASIZE PUSH1 0x4 PUSH2 0x1279 JUMP JUMPDEST PUSH2 0xC8B JUMP JUMPDEST CALLVALUE DUP1 ISZERO PUSH2 0x30D JUMPI PUSH1 0x0 DUP1 REVERT JUMPDEST POP PUSH2 0x163 PUSH2 0x31C CALLDATASIZE PUSH1 0x4 PUSH2 0x1279 JUMP JUMPDEST PUSH1 0x4 PUSH1 0x20 MSTORE PUSH1 0x0 SWAP1 DUP2 MSTORE PUSH1 0x40 SWAP1 KECCAK256 SLOAD DUP2 JUMP JUMPDEST PUSH2 0x196 PUSH2 0xD20 JUMP JUMPDEST CALLVALUE DUP1 ISZERO PUSH2 0x342 JUMPI PUSH1 0x0 DUP1 REVERT JUMPDEST POP PUSH2 0x163 PUSH2 0x351 CALLDATASIZE PUSH1 0x4 PUSH2 0x13D3 JUMP JUMPDEST PUSH2 0xD39 JUMP JUMPDEST CALLVALUE DUP1 ISZERO PUSH2 0x362 JUMPI PUSH1 0x0 DUP1 REVERT JUMPDEST POP PUSH2 0x196 PUSH2 0x371 CALLDATASIZE PUSH1 0x4 PUSH2 0x1279 JUMP JUMPDEST PUSH2 0x1069 JUMP JUMPDEST PUSH1 0x8 SLOAD PUSH20 0xFFFFFFFFFFFFFFFFFFFFFFFFFFFFFFFFFFFFFFFF AND CALLER EQ PUSH2 0x3FC JUMPI PUSH1 0x40 MLOAD PUSH32 0x8C379A000000000000000000000000000000000000000000000000000000000 DUP2 MSTORE PUSH1 0x20 PUSH1 0x4 DUP3 ADD MSTORE PUSH1 0x2 PUSH1 0x24 DUP3 ADD MSTORE PUSH32 0x6E6F000000000000000000000000000000000000000000000000000000000000 PUSH1 0x44 DUP3 ADD MSTORE PUSH1 0x64 ADD JUMPDEST PUSH1 0x40 MLOAD DUP1 SWAP2 SUB SWAP1 REVERT JUMPDEST PUSH1 0x1 DUP1 SLOAD PUSH32 0xFFFFFFFFFFFFFFFFFFFFFFFF0000000000000000000000000000000000000000 AND PUSH20 0xFFFFFFFFFFFFFFFFFFFFFFFFFFFFFFFFFFFFFFFF SWAP3 SWAP1 SWAP3 AND SWAP2 SWAP1 SWAP2 OR SWAP1 SSTORE JUMP JUMPDEST PUSH1 0x8 SLOAD PUSH20 0xFFFFFFFFFFFFFFFFFFFFFFFFFFFFFFFFFFFFFFFF AND CALLER EQ PUSH2 0x4C4 JUMPI PUSH1 0x40 MLOAD PUSH32 0x8C379A000000000000000000000000000000000000000000000000000000000 DUP2 MSTORE PUSH1 0x20 PUSH1 0x4 DUP3 ADD MSTORE PUSH1 0x2 PUSH1 0x24 DUP3 ADD MSTORE PUSH32 0x6E6F000000000000000000000000000000000000000000000000000000000000 PUSH1 0x44 DUP3 ADD MSTORE PUSH1 0x64 ADD PUSH2 0x3F3 JUMP JUMPDEST PUSH1 0x8 SLOAD PUSH1 0x40 MLOAD PUSH20 0xFFFFFFFFFFFFFFFFFFFFFFFFFFFFFFFFFFFFFFFF SWAP1 SWAP2 AND SWAP1 PUSH2 0x5E4A SWAP1 SELFBALANCE SWAP1 PUSH1 0x0 DUP2 DUP2 DUP2 DUP6 DUP9 DUP9 CALL SWAP4 POP POP POP POP RETURNDATASIZE DUP1 PUSH1 0x0 DUP2 EQ PUSH2 0x523 JUMPI PUSH1 0x40 MLOAD SWAP2 POP PUSH1 0x1F NOT PUSH1 0x3F RETURNDATASIZE ADD AND DUP3 ADD PUSH1 0x40 MSTORE RETURNDATASIZE DUP3 MSTORE RETURNDATASIZE PUSH1 0x0 PUSH1 0x20 DUP5 ADD RETURNDATACOPY POP POP POP JUMP JUMPDEST POP POP POP JUMP JUMPDEST PUSH2 0x530 PUSH2 0x10F6 JUMP JUMPDEST PUSH2 0x53A PUSH1 0x0 PUSH2 0x1177 JUMP JUMPDEST JUMP JUMPDEST PUSH1 0x0 DUP1 DUP1 JUMPDEST DUP5 MLOAD DUP2 LT ISZERO PUSH2 0x7A3 JUMPI PUSH1 0x0 DUP6 DUP3 DUP2 MLOAD DUP2 LT PUSH2 0x55E JUMPI PUSH2 0x55E PUSH2 0x1463 JUMP JUMPDEST PUSH1 0x20 SWAP1 DUP2 MUL SWAP2 SWAP1 SWAP2 ADD ADD MLOAD PUSH1 0x1 SLOAD PUSH1 0x40 MLOAD PUSH32 0x6352211E00000000000000000000000000000000000000000000000000000000 DUP2 MSTORE PUSH1 0x4 DUP2 ADD DUP4 SWAP1 MSTORE SWAP2 SWAP3 POP PUSH20 0xFFFFFFFFFFFFFFFFFFFFFFFFFFFFFFFFFFFFFFFF DUP8 DUP2 AND SWAP3 SWAP2 AND SWAP1 PUSH4 0x6352211E SWAP1 PUSH1 0x24 ADD PUSH1 0x20 PUSH1 0x40 MLOAD DUP1 DUP4 SUB DUP2 DUP7 GAS STATICCALL ISZERO DUP1 ISZERO PUSH2 0x5DE JUMPI RETURNDATASIZE PUSH1 0x0 DUP1 RETURNDATACOPY RETURNDATASIZE PUSH1 0x0 REVERT JUMPDEST POP POP POP POP PUSH1 0x40 MLOAD RETURNDATASIZE PUSH1 0x1F NOT PUSH1 0x1F DUP3 ADD AND DUP3 ADD DUP1 PUSH1 0x40 MSTORE POP DUP2 ADD SWAP1 PUSH2 0x602 SWAP2 SWAP1 PUSH2 0x1492 JUMP JUMPDEST PUSH20 0xFFFFFFFFFFFFFFFFFFFFFFFFFFFFFFFFFFFFFFFF AND EQ PUSH2 0x6A5 JUMPI PUSH1 0x40 MLOAD PUSH32 0x8C379A000000000000000000000000000000000000000000000000000000000 DUP2 MSTORE PUSH1 0x20 PUSH1 0x4 DUP3 ADD MSTORE PUSH1 0x2F PUSH1 0x24 DUP3 ADD MSTORE PUSH32 0x596F75206D75737420626520746865206F776E6572206F6620616E204E465420 PUSH1 0x44 DUP3 ADD MSTORE PUSH32 0x746F20636C61696D2066756E64732E0000000000000000000000000000000000 PUSH1 0x64 DUP3 ADD MSTORE PUSH1 0x84 ADD PUSH2 0x3F3 JUMP JUMPDEST PUSH1 0x0 DUP2 DUP2 MSTORE PUSH1 0x7 PUSH1 0x20 MSTORE PUSH1 0x40 DUP2 KECCAK256 SLOAD PUSH2 0x6BE SWAP1 SELFBALANCE PUSH2 0x14AF JUMP JUMPDEST GT ISZERO PUSH2 0x790 JUMPI PUSH1 0x1 PUSH1 0x0 SWAP1 SLOAD SWAP1 PUSH2 0x100 EXP SWAP1 DIV PUSH20 0xFFFFFFFFFFFFFFFFFFFFFFFFFFFFFFFFFFFFFFFF AND PUSH20 0xFFFFFFFFFFFFFFFFFFFFFFFFFFFFFFFFFFFFFFFF AND PUSH4 0x18160DDD PUSH1 0x40 MLOAD DUP2 PUSH4 0xFFFFFFFF AND PUSH1 0xE0 SHL DUP2 MSTORE PUSH1 0x4 ADD PUSH1 0x20 PUSH1 0x40 MLOAD DUP1 DUP4 SUB DUP2 DUP7 GAS STATICCALL ISZERO DUP1 ISZERO PUSH2 0x731 JUMPI RETURNDATASIZE PUSH1 0x0 DUP1 RETURNDATACOPY RETURNDATASIZE PUSH1 0x0 REVERT JUMPDEST POP POP POP POP PUSH1 0x40 MLOAD RETURNDATASIZE PUSH1 0x1F NOT PUSH1 0x1F DUP3 ADD AND DUP3 ADD DUP1 PUSH1 0x40 MSTORE POP DUP2 ADD SWAP1 PUSH2 0x755 SWAP2 SWAP1 PUSH2 0x14C2 JUMP JUMPDEST PUSH1 0x0 DUP3 DUP2 MSTORE PUSH1 0x7 PUSH1 0x20 MSTORE PUSH1 0x40 SWAP1 KECCAK256 SLOAD PUSH2 0x76E SWAP1 SELFBALANCE PUSH2 0x14AF JUMP JUMPDEST PUSH2 0x779 SWAP1 PUSH1 0x1 PUSH2 0x14DB JUMP JUMPDEST PUSH2 0x783 SWAP2 SWAP1 PUSH2 0x14F2 JUMP JUMPDEST PUSH2 0x78D SWAP1 DUP5 PUSH2 0x121B JUMP JUMPDEST SWAP3 POP JUMPDEST POP DUP1 PUSH2 0x79B DUP2 PUSH2 0x152D JUMP JUMPDEST SWAP2 POP POP PUSH2 0x541 JUMP JUMPDEST POP PUSH2 0x7AF PUSH1 0x64 DUP3 PUSH2 0x14F2 JUMP JUMPDEST PUSH2 0x7BA SWAP1 PUSH1 0x2 PUSH2 0x14DB JUMP JUMPDEST PUSH2 0x7C6 SWAP1 PUSH2 0x567A PUSH2 0x121B JUMP JUMPDEST SWAP2 POP POP JUMPDEST SWAP3 SWAP2 POP POP JUMP JUMPDEST PUSH1 0x8 SLOAD PUSH20 0xFFFFFFFFFFFFFFFFFFFFFFFFFFFFFFFFFFFFFFFF AND CALLER EQ PUSH2 0x851 JUMPI PUSH1 0x40 MLOAD PUSH32 0x8C379A000000000000000000000000000000000000000000000000000000000 DUP2 MSTORE PUSH1 0x20 PUSH1 0x4 DUP3 ADD MSTORE PUSH1 0x2 PUSH1 0x24 DUP3 ADD MSTORE PUSH32 0x6E6F000000000000000000000000000000000000000000000000000000000000 PUSH1 0x44 DUP3 ADD MSTORE PUSH1 0x64 ADD PUSH2 0x3F3 JUMP JUMPDEST PUSH1 0x6 DUP1 SLOAD PUSH32 0xFFFFFFFFFFFFFFFFFFFFFFFF0000000000000000000000000000000000000000 AND PUSH20 0xFFFFFFFFFFFFFFFFFFFFFFFFFFFFFFFFFFFFFFFF SWAP3 SWAP1 SWAP3 AND SWAP2 SWAP1 SWAP2 OR SWAP1 SSTORE JUMP JUMPDEST PUSH1 0x0 DUP1 JUMPDEST DUP4 MLOAD DUP2 LT ISZERO PUSH2 0xB0F JUMPI PUSH1 0x0 DUP5 DUP3 DUP2 MLOAD DUP2 LT PUSH2 0x8B9 JUMPI PUSH2 0x8B9 PUSH2 0x1463 JUMP JUMPDEST PUSH1 0x20 SWAP1 DUP2 MUL SWAP2 SWAP1 SWAP2 ADD ADD MLOAD PUSH1 0x1 SLOAD PUSH1 0x40 MLOAD PUSH32 0x6352211E00000000000000000000000000000000000000000000000000000000 DUP2 MSTORE PUSH1 0x4 DUP2 ADD DUP4 SWAP1 MSTORE SWAP2 SWAP3 POP PUSH20 0xFFFFFFFFFFFFFFFFFFFFFFFFFFFFFFFFFFFFFFFF DUP7 DUP2 AND SWAP3 SWAP2 AND SWAP1 PUSH4 0x6352211E SWAP1 PUSH1 0x24 ADD PUSH1 0x20 PUSH1 0x40 MLOAD DUP1 DUP4 SUB DUP2 DUP7 GAS STATICCALL ISZERO DUP1 ISZERO PUSH2 0x939 JUMPI RETURNDATASIZE PUSH1 0x0 DUP1 RETURNDATACOPY RETURNDATASIZE PUSH1 0x0 REVERT JUMPDEST POP POP POP POP PUSH1 0x40 MLOAD RETURNDATASIZE PUSH1 0x1F NOT PUSH1 0x1F DUP3 ADD AND DUP3 ADD DUP1 PUSH1 0x40 MSTORE POP DUP2 ADD SWAP1 PUSH2 0x95D SWAP2 SWAP1 PUSH2 0x1492 JUMP JUMPDEST PUSH20 0xFFFFFFFFFFFFFFFFFFFFFFFFFFFFFFFFFFFFFFFF AND EQ PUSH2 0xA00 JUMPI PUSH1 0x40 MLOAD PUSH32 0x8C379A000000000000000000000000000000000000000000000000000000000 DUP2 MSTORE PUSH1 0x20 PUSH1 0x4 DUP3 ADD MSTORE PUSH1 0x2F PUSH1 0x24 DUP3 ADD MSTORE PUSH32 0x596F75206D75737420626520746865206F776E6572206F6620616E204E465420 PUSH1 0x44 DUP3 ADD MSTORE PUSH32 0x746F20636C61696D2066756E64732E0000000000000000000000000000000000 PUSH1 0x64 DUP3 ADD MSTORE PUSH1 0x84 ADD PUSH2 0x3F3 JUMP JUMPDEST PUSH1 0x0 DUP2 DUP2 MSTORE PUSH1 0x7 PUSH1 0x20 MSTORE PUSH1 0x40 DUP2 KECCAK256 SLOAD PUSH2 0xA19 SWAP1 SELFBALANCE PUSH2 0x14AF JUMP JUMPDEST GT ISZERO PUSH2 0xAFC JUMPI PUSH1 0x1 PUSH1 0x0 SWAP1 SLOAD SWAP1 PUSH2 0x100 EXP SWAP1 DIV PUSH20 0xFFFFFFFFFFFFFFFFFFFFFFFFFFFFFFFFFFFFFFFF AND PUSH20 0xFFFFFFFFFFFFFFFFFFFFFFFFFFFFFFFFFFFFFFFF AND PUSH4 0x18160DDD PUSH1 0x40 MLOAD DUP2 PUSH4 0xFFFFFFFF AND PUSH1 0xE0 SHL DUP2 MSTORE PUSH1 0x4 ADD PUSH1 0x20 PUSH1 0x40 MLOAD DUP1 DUP4 SUB DUP2 DUP7 GAS STATICCALL ISZERO DUP1 ISZERO PUSH2 0xA8C JUMPI RETURNDATASIZE PUSH1 0x0 DUP1 RETURNDATACOPY RETURNDATASIZE PUSH1 0x0 REVERT JUMPDEST POP POP POP POP PUSH1 0x40 MLOAD RETURNDATASIZE PUSH1 0x1F NOT PUSH1 0x1F DUP3 ADD AND DUP3 ADD DUP1 PUSH1 0x40 MSTORE POP DUP2 ADD SWAP1 PUSH2 0xAB0 SWAP2 SWAP1 PUSH2 0x14C2 JUMP JUMPDEST PUSH1 0x0 DUP3 DUP2 MSTORE PUSH1 0x7 PUSH1 0x20 MSTORE PUSH1 0x40 SWAP1 KECCAK256 SLOAD PUSH2 0xAC9 SWAP1 SELFBALANCE PUSH2 0x14AF JUMP JUMPDEST PUSH2 0xAD4 SWAP1 PUSH1 0x1 PUSH2 0x14DB JUMP JUMPDEST PUSH2 0xADE SWAP2 SWAP1 PUSH2 0x14F2 JUMP JUMPDEST PUSH2 0xAE8 SWAP1 DUP5 PUSH2 0x121B JUMP JUMPDEST PUSH1 0x0 DUP3 DUP2 MSTORE PUSH1 0x7 PUSH1 0x20 MSTORE PUSH1 0x40 SWAP1 KECCAK256 SELFBALANCE SWAP1 SSTORE SWAP3 POP JUMPDEST POP DUP1 PUSH2 0xB07 DUP2 PUSH2 0x152D JUMP JUMPDEST SWAP2 POP POP PUSH2 0x89C JUMP JUMPDEST POP PUSH2 0xB1C PUSH2 0x567A DUP3 PUSH2 0x14AF JUMP JUMPDEST SWAP1 POP PUSH3 0x1036E DUP2 GT PUSH2 0xB8A JUMPI PUSH1 0x40 MLOAD PUSH32 0x8C379A000000000000000000000000000000000000000000000000000000000 DUP2 MSTORE PUSH1 0x20 PUSH1 0x4 DUP3 ADD MSTORE PUSH1 0x11 PUSH1 0x24 DUP3 ADD MSTORE PUSH32 0x4E6F2066756E647320746F20636C61696D000000000000000000000000000000 PUSH1 0x44 DUP3 ADD MSTORE PUSH1 0x64 ADD PUSH2 0x3F3 JUMP JUMPDEST DUP1 PUSH1 0x3 PUSH1 0x0 DUP3 DUP3 SLOAD PUSH2 0xB9C SWAP2 SWAP1 PUSH2 0x121B JUMP JUMPDEST SWAP1 SWAP2 SSTORE POP CALLER SWAP1 POP PUSH2 0xBAE PUSH1 0x64 DUP4 PUSH2 0x14F2 JUMP JUMPDEST PUSH2 0xBB9 SWAP1 PUSH1 0x2 PUSH2 0x14DB JUMP JUMPDEST PUSH2 0xBC5 SWAP1 PUSH2 0x567A PUSH2 0x121B JUMP JUMPDEST PUSH1 0x40 MLOAD PUSH2 0x567A SWAP2 SWAP1 PUSH1 0x0 DUP2 DUP2 DUP2 DUP6 DUP9 DUP9 CALL SWAP4 POP POP POP POP RETURNDATASIZE DUP1 PUSH1 0x0 DUP2 EQ PUSH2 0xC07 JUMPI PUSH1 0x40 MLOAD SWAP2 POP PUSH1 0x1F NOT PUSH1 0x3F RETURNDATASIZE ADD AND DUP3 ADD PUSH1 0x40 MSTORE RETURNDATASIZE DUP3 MSTORE RETURNDATASIZE PUSH1 0x0 PUSH1 0x20 DUP5 ADD RETURNDATACOPY PUSH2 0xC0C JUMP JUMPDEST PUSH1 0x60 SWAP2 POP JUMPDEST POP POP POP PUSH20 0xFFFFFFFFFFFFFFFFFFFFFFFFFFFFFFFFFFFFFFFF DUP3 AND PUSH2 0xC31 PUSH1 0x64 DUP4 PUSH2 0x14F2 JUMP JUMPDEST PUSH2 0xC3C SWAP1 PUSH1 0x62 PUSH2 0x14DB JUMP JUMPDEST PUSH1 0x40 MLOAD PUSH2 0x567A SWAP2 SWAP1 PUSH1 0x0 DUP2 DUP2 DUP2 DUP6 DUP9 DUP9 CALL SWAP4 POP POP POP POP RETURNDATASIZE DUP1 PUSH1 0x0 DUP2 EQ PUSH2 0xC7E JUMPI PUSH1 0x40 MLOAD SWAP2 POP PUSH1 0x1F NOT PUSH1 0x3F RETURNDATASIZE ADD AND DUP3 ADD PUSH1 0x40 MSTORE RETURNDATASIZE DUP3 MSTORE RETURNDATASIZE PUSH1 0x0 PUSH1 0x20 DUP5 ADD RETURNDATACOPY PUSH2 0xC83 JUMP JUMPDEST PUSH1 0x60 SWAP2 POP JUMPDEST POP POP POP POP POP POP JUMP JUMPDEST PUSH1 0x1 SLOAD PUSH1 0x40 MLOAD PUSH32 0x70A0823100000000000000000000000000000000000000000000000000000000 DUP2 MSTORE PUSH20 0xFFFFFFFFFFFFFFFFFFFFFFFFFFFFFFFFFFFFFFFF DUP4 DUP2 AND PUSH1 0x4 DUP4 ADD MSTORE PUSH1 0x0 SWAP3 AND SWAP1 PUSH4 0x70A08231 SWAP1 PUSH1 0x24 ADD PUSH1 0x20 PUSH1 0x40 MLOAD DUP1 DUP4 SUB DUP2 DUP7 GAS STATICCALL ISZERO DUP1 ISZERO PUSH2 0xCFC JUMPI RETURNDATASIZE PUSH1 0x0 DUP1 RETURNDATACOPY RETURNDATASIZE PUSH1 0x0 REVERT JUMPDEST POP POP POP POP PUSH1 0x40 MLOAD RETURNDATASIZE PUSH1 0x1F NOT PUSH1 0x1F DUP3 ADD AND DUP3 ADD DUP1 PUSH1 0x40 MSTORE POP DUP2 ADD SWAP1 PUSH2 0x7CA SWAP2 SWAP1 PUSH2 0x14C2 JUMP JUMPDEST CALLVALUE PUSH1 0x2 PUSH1 0x0 DUP3 DUP3 SLOAD PUSH2 0xD32 SWAP2 SWAP1 PUSH2 0x121B JUMP JUMPDEST SWAP1 SWAP2 SSTORE POP POP JUMP JUMPDEST PUSH1 0x0 DUP1 DUP1 JUMPDEST PUSH1 0x1 DUP2 LT ISZERO PUSH2 0xF9A JUMPI PUSH1 0x0 DUP6 DUP3 PUSH1 0x1 DUP2 LT PUSH2 0xD5B JUMPI PUSH2 0xD5B PUSH2 0x1463 JUMP JUMPDEST PUSH1 0x20 MUL ADD MLOAD PUSH1 0x1 SLOAD PUSH1 0x40 MLOAD PUSH32 0x6352211E00000000000000000000000000000000000000000000000000000000 DUP2 MSTORE PUSH1 0x4 DUP2 ADD DUP4 SWAP1 MSTORE SWAP2 SWAP3 POP PUSH20 0xFFFFFFFFFFFFFFFFFFFFFFFFFFFFFFFFFFFFFFFF DUP8 DUP2 AND SWAP3 SWAP2 AND SWAP1 PUSH4 0x6352211E SWAP1 PUSH1 0x24 ADD PUSH1 0x20 PUSH1 0x40 MLOAD DUP1 DUP4 SUB DUP2 DUP7 GAS STATICCALL ISZERO DUP1 ISZERO PUSH2 0xDD5 JUMPI RETURNDATASIZE PUSH1 0x0 DUP1 RETURNDATACOPY RETURNDATASIZE PUSH1 0x0 REVERT JUMPDEST POP POP POP POP PUSH1 0x40 MLOAD RETURNDATASIZE PUSH1 0x1F NOT PUSH1 0x1F DUP3 ADD AND DUP3 ADD DUP1 PUSH1 0x40 MSTORE POP DUP2 ADD SWAP1 PUSH2 0xDF9 SWAP2 SWAP1 PUSH2 0x1492 JUMP JUMPDEST PUSH20 0xFFFFFFFFFFFFFFFFFFFFFFFFFFFFFFFFFFFFFFFF AND EQ PUSH2 0xE9C JUMPI PUSH1 0x40 MLOAD PUSH32 0x8C379A000000000000000000000000000000000000000000000000000000000 DUP2 MSTORE PUSH1 0x20 PUSH1 0x4 DUP3 ADD MSTORE PUSH1 0x2F PUSH1 0x24 DUP3 ADD MSTORE PUSH32 0x596F75206D75737420626520746865206F776E6572206F6620616E204E465420 PUSH1 0x44 DUP3 ADD MSTORE PUSH32 0x746F20636C61696D2066756E64732E0000000000000000000000000000000000 PUSH1 0x64 DUP3 ADD MSTORE PUSH1 0x84 ADD PUSH2 0x3F3 JUMP JUMPDEST PUSH1 0x0 DUP2 DUP2 MSTORE PUSH1 0x7 PUSH1 0x20 MSTORE PUSH1 0x40 DUP2 KECCAK256 SLOAD PUSH2 0xEB5 SWAP1 SELFBALANCE PUSH2 0x14AF JUMP JUMPDEST GT ISZERO PUSH2 0xF87 JUMPI PUSH1 0x1 PUSH1 0x0 SWAP1 SLOAD SWAP1 PUSH2 0x100 EXP SWAP1 DIV PUSH20 0xFFFFFFFFFFFFFFFFFFFFFFFFFFFFFFFFFFFFFFFF AND PUSH20 0xFFFFFFFFFFFFFFFFFFFFFFFFFFFFFFFFFFFFFFFF AND PUSH4 0x18160DDD PUSH1 0x40 MLOAD DUP2 PUSH4 0xFFFFFFFF AND PUSH1 0xE0 SHL DUP2 MSTORE PUSH1 0x4 ADD PUSH1 0x20 PUSH1 0x40 MLOAD DUP1 DUP4 SUB DUP2 DUP7 GAS STATICCALL ISZERO DUP1 ISZERO PUSH2 0xF28 JUMPI RETURNDATASIZE PUSH1 0x0 DUP1 RETURNDATACOPY RETURNDATASIZE PUSH1 0x0 REVERT JUMPDEST POP POP POP POP PUSH1 0x40 MLOAD RETURNDATASIZE PUSH1 0x1F NOT PUSH1 0x1F DUP3 ADD AND DUP3 ADD DUP1 PUSH1 0x40 MSTORE POP DUP2 ADD SWAP1 PUSH2 0xF4C SWAP2 SWAP1 PUSH2 0x14C2 JUMP JUMPDEST PUSH1 0x0 DUP3 DUP2 MSTORE PUSH1 0x7 PUSH1 0x20 MSTORE PUSH1 0x40 SWAP1 KECCAK256 SLOAD PUSH2 0xF65 SWAP1 SELFBALANCE PUSH2 0x14AF JUMP JUMPDEST PUSH2 0xF70 SWAP1 PUSH1 0x1 PUSH2 0x14DB JUMP JUMPDEST PUSH2 0xF7A SWAP2 SWAP1 PUSH2 0x14F2 JUMP JUMPDEST PUSH2 0xF84 SWAP1 DUP5 PUSH2 0x121B JUMP JUMPDEST SWAP3 POP JUMPDEST POP DUP1 PUSH2 0xF92 DUP2 PUSH2 0x152D JUMP JUMPDEST SWAP2 POP POP PUSH2 0xD3E JUMP JUMPDEST POP PUSH2 0xFA7 PUSH2 0x567A DUP3 PUSH2 0x14AF JUMP JUMPDEST SWAP1 POP PUSH1 0x4 PUSH1 0x0 DUP5 PUSH20 0xFFFFFFFFFFFFFFFFFFFFFFFFFFFFFFFFFFFFFFFF AND PUSH20 0xFFFFFFFFFFFFFFFFFFFFFFFFFFFFFFFFFFFFFFFF AND DUP2 MSTORE PUSH1 0x20 ADD SWAP1 DUP2 MSTORE PUSH1 0x20 ADD PUSH1 0x0 KECCAK256 SLOAD PUSH1 0x5 PUSH1 0x0 DUP3 DUP3 SLOAD PUSH2 0xFFA SWAP2 SWAP1 PUSH2 0x14AF JUMP JUMPDEST SWAP1 SWAP2 SSTORE POP PUSH2 0x100B SWAP1 POP PUSH1 0x64 DUP3 PUSH2 0x14F2 JUMP JUMPDEST PUSH2 0x1016 SWAP1 PUSH1 0x2 PUSH2 0x14DB JUMP JUMPDEST PUSH2 0x1022 SWAP1 PUSH2 0x567A PUSH2 0x121B JUMP JUMPDEST PUSH20 0xFFFFFFFFFFFFFFFFFFFFFFFFFFFFFFFFFFFFFFFF DUP5 AND PUSH1 0x0 SWAP1 DUP2 MSTORE PUSH1 0x4 PUSH1 0x20 MSTORE PUSH1 0x40 DUP2 KECCAK256 DUP3 SWAP1 SSTORE PUSH1 0x5 DUP1 SLOAD SWAP1 SWAP2 SWAP1 PUSH2 0x105C SWAP1 DUP5 SWAP1 PUSH2 0x121B JUMP JUMPDEST SWAP1 SWAP2 SSTORE POP SWAP1 SWAP5 SWAP4 POP POP POP POP JUMP JUMPDEST PUSH1 0x8 SLOAD PUSH20 0xFFFFFFFFFFFFFFFFFFFFFFFFFFFFFFFFFFFFFFFF AND CALLER EQ PUSH2 0x10EA JUMPI PUSH1 0x40 MLOAD PUSH32 0x8C379A000000000000000000000000000000000000000000000000000000000 DUP2 MSTORE PUSH1 0x20 PUSH1 0x4 DUP3 ADD MSTORE PUSH1 0x2 PUSH1 0x24 DUP3 ADD MSTORE PUSH32 0x6E6F000000000000000000000000000000000000000000000000000000000000 PUSH1 0x44 DUP3 ADD MSTORE PUSH1 0x64 ADD PUSH2 0x3F3 JUMP JUMPDEST PUSH2 0x10F3 DUP2 PUSH2 0x1177 JUMP JUMPDEST POP JUMP JUMPDEST PUSH1 0x0 SLOAD PUSH20 0xFFFFFFFFFFFFFFFFFFFFFFFFFFFFFFFFFFFFFFFF AND CALLER EQ PUSH2 0x53A JUMPI PUSH1 0x40 MLOAD PUSH32 0x8C379A000000000000000000000000000000000000000000000000000000000 DUP2 MSTORE PUSH1 0x20 PUSH1 0x4 DUP3 ADD DUP2 SWAP1 MSTORE PUSH1 0x24 DUP3 ADD MSTORE PUSH32 0x4F776E61626C653A2063616C6C6572206973206E6F7420746865206F776E6572 PUSH1 0x44 DUP3 ADD MSTORE PUSH1 0x64 ADD PUSH2 0x3F3 JUMP JUMPDEST PUSH1 0x0 DUP1 SLOAD PUSH20 0xFFFFFFFFFFFFFFFFFFFFFFFFFFFFFFFFFFFFFFFF DUP4 DUP2 AND PUSH32 0xFFFFFFFFFFFFFFFFFFFFFFFF0000000000000000000000000000000000000000 DUP4 AND DUP2 OR DUP5 SSTORE PUSH1 0x40 MLOAD SWAP2 SWAP1 SWAP3 AND SWAP3 DUP4 SWAP2 PUSH32 0x8BE0079C531659141344CD1FD0A4F28419497F9722A3DAAFE3B4186F6B6457E0 SWAP2 SWAP1 LOG3 POP POP JUMP JUMPDEST PUSH32 0x4E487B7100000000000000000000000000000000000000000000000000000000 PUSH1 0x0 MSTORE PUSH1 0x11 PUSH1 0x4 MSTORE PUSH1 0x24 PUSH1 0x0 REVERT JUMPDEST DUP1 DUP3 ADD DUP1 DUP3 GT ISZERO PUSH2 0x7CA JUMPI PUSH2 0x7CA PUSH2 0x11EC JUMP JUMPDEST PUSH1 0x0 PUSH1 0x20 DUP3 DUP5 SUB SLT ISZERO PUSH2 0x1240 JUMPI PUSH1 0x0 DUP1 REVERT JUMPDEST POP CALLDATALOAD SWAP2 SWAP1 POP JUMP JUMPDEST PUSH20 0xFFFFFFFFFFFFFFFFFFFFFFFFFFFFFFFFFFFFFFFF DUP2 AND DUP2 EQ PUSH2 0x10F3 JUMPI PUSH1 0x0 DUP1 REVERT JUMPDEST DUP1 CALLDATALOAD PUSH2 0x1274 DUP2 PUSH2 0x1247 JUMP JUMPDEST SWAP2 SWAP1 POP JUMP JUMPDEST PUSH1 0x0 PUSH1 0x20 DUP3 DUP5 SUB SLT ISZERO PUSH2 0x128B JUMPI PUSH1 0x0 DUP1 REVERT JUMPDEST DUP2 CALLDATALOAD PUSH2 0x1296 DUP2 PUSH2 0x1247 JUMP JUMPDEST SWAP4 SWAP3 POP POP POP JUMP JUMPDEST PUSH32 0x4E487B7100000000000000000000000000000000000000000000000000000000 PUSH1 0x0 MSTORE PUSH1 0x41 PUSH1 0x4 MSTORE PUSH1 0x24 PUSH1 0x0 REVERT JUMPDEST PUSH1 0x40 MLOAD PUSH1 0x1F DUP3 ADD PUSH32 0xFFFFFFFFFFFFFFFFFFFFFFFFFFFFFFFFFFFFFFFFFFFFFFFFFFFFFFFFFFFFFFE0 AND DUP2 ADD PUSH8 0xFFFFFFFFFFFFFFFF DUP2 GT DUP3 DUP3 LT OR ISZERO PUSH2 0x1313 JUMPI PUSH2 0x1313 PUSH2 0x129D JUMP JUMPDEST PUSH1 0x40 MSTORE SWAP2 SWAP1 POP JUMP JUMPDEST PUSH1 0x0 DUP1 PUSH1 0x40 DUP4 DUP6 SUB SLT ISZERO PUSH2 0x132E JUMPI PUSH1 0x0 DUP1 REVERT JUMPDEST DUP3 CALLDATALOAD PUSH8 0xFFFFFFFFFFFFFFFF DUP1 DUP3 GT ISZERO PUSH2 0x1346 JUMPI PUSH1 0x0 DUP1 REVERT JUMPDEST DUP2 DUP6 ADD SWAP2 POP DUP6 PUSH1 0x1F DUP4 ADD SLT PUSH2 0x135A JUMPI PUSH1 0x0 DUP1 REVERT JUMPDEST DUP2 CALLDATALOAD PUSH1 0x20 DUP3 DUP3 GT ISZERO PUSH2 0x136E JUMPI PUSH2 0x136E PUSH2 0x129D JUMP JUMPDEST DUP2 PUSH1 0x5 SHL SWAP3 POP PUSH2 0x137F DUP2 DUP5 ADD PUSH2 0x12CC JUMP JUMPDEST DUP3 DUP2 MSTORE SWAP3 DUP5 ADD DUP2 ADD SWAP3 DUP2 DUP2 ADD SWAP1 DUP10 DUP6 GT ISZERO PUSH2 0x1399 JUMPI PUSH1 0x0 DUP1 REVERT JUMPDEST SWAP5 DUP3 ADD SWAP5 JUMPDEST DUP5 DUP7 LT ISZERO PUSH2 0x13B7 JUMPI DUP6 CALLDATALOAD DUP3 MSTORE SWAP5 DUP3 ADD SWAP5 SWAP1 DUP3 ADD SWAP1 PUSH2 0x139E JUMP JUMPDEST SWAP7 POP PUSH2 0x13C6 SWAP1 POP DUP8 DUP3 ADD PUSH2 0x1269 JUMP JUMPDEST SWAP5 POP POP POP POP POP SWAP3 POP SWAP3 SWAP1 POP JUMP JUMPDEST PUSH1 0x0 DUP1 PUSH1 0x40 DUP4 DUP6 SUB SLT ISZERO PUSH2 0x13E6 JUMPI PUSH1 0x0 DUP1 REVERT JUMPDEST DUP4 PUSH1 0x1F DUP5 ADD SLT PUSH2 0x13F5 JUMPI PUSH1 0x0 DUP1 REVERT JUMPDEST PUSH1 0x40 MLOAD PUSH1 0x20 DUP1 DUP3 ADD DUP3 DUP2 LT PUSH8 0xFFFFFFFFFFFFFFFF DUP3 GT OR ISZERO PUSH2 0x1419 JUMPI PUSH2 0x1419 PUSH2 0x129D JUMP JUMPDEST PUSH1 0x40 MSTORE DUP2 DUP6 DUP3 ADD DUP8 DUP2 GT ISZERO PUSH2 0x142D JUMPI PUSH1 0x0 DUP1 REVERT JUMPDEST DUP7 JUMPDEST DUP2 DUP2 LT ISZERO PUSH2 0x1446 JUMPI DUP1 CALLDATALOAD DUP4 MSTORE SWAP2 DUP4 ADD SWAP2 DUP4 ADD PUSH2 0x142F JUMP JUMPDEST POP SWAP3 SWAP5 POP POP SWAP1 CALLDATALOAD SWAP1 POP PUSH2 0x1458 DUP2 PUSH2 0x1247 JUMP JUMPDEST DUP1 SWAP2 POP POP SWAP3 POP SWAP3 SWAP1 POP JUMP JUMPDEST PUSH32 0x4E487B7100000000000000000000000000000000000000000000000000000000 PUSH1 0x0 MSTORE PUSH1 0x32 PUSH1 0x4 MSTORE PUSH1 0x24 PUSH1 0x0 REVERT JUMPDEST PUSH1 0x0 PUSH1 0x20 DUP3 DUP5 SUB SLT ISZERO PUSH2 0x14A4 JUMPI PUSH1 0x0 DUP1 REVERT JUMPDEST DUP2 MLOAD PUSH2 0x1296 DUP2 PUSH2 0x1247 JUMP JUMPDEST DUP2 DUP2 SUB DUP2 DUP2 GT ISZERO PUSH2 0x7CA JUMPI PUSH2 0x7CA PUSH2 0x11EC JUMP JUMPDEST PUSH1 0x0 PUSH1 0x20 DUP3 DUP5 SUB SLT ISZERO PUSH2 0x14D4 JUMPI PUSH1 0x0 DUP1 REVERT JUMPDEST POP MLOAD SWAP2 SWAP1 POP JUMP JUMPDEST DUP1 DUP3 MUL DUP2 ISZERO DUP3 DUP3 DIV DUP5 EQ OR PUSH2 0x7CA JUMPI PUSH2 0x7CA PUSH2 0x11EC JUMP JUMPDEST PUSH1 0x0 DUP3 PUSH2 0x1528 JUMPI PUSH32 0x4E487B7100000000000000000000000000000000000000000000000000000000 PUSH1 0x0 MSTORE PUSH1 0x12 PUSH1 0x4 MSTORE PUSH1 0x24 PUSH1 0x0 REVERT JUMPDEST POP DIV SWAP1 JUMP JUMPDEST PUSH1 0x0 PUSH32 0xFFFFFFFFFFFFFFFFFFFFFFFFFFFFFFFFFFFFFFFFFFFFFFFFFFFFFFFFFFFFFFFF DUP3 SUB PUSH2 0x155E JUMPI PUSH2 0x155E PUSH2 0x11EC JUMP JUMPDEST POP PUSH1 0x1 ADD SWAP1 JUMP INVALID LOG2 PUSH5 0x6970667358 0x22 SLT KECCAK256 DUP6 0xF 0xEE DUP10 SDIV NUMBER SWAP15 0xF PUSH25 0xAF466CE5AA6AC7F4B3886951F90C030E6F22D08F70116C6473 PUSH16 0x6C634300081100330000000000000000 "
		},
		"gasEstimates": {
			"creation": {
				"codeDepositCost": "1106200",
				"executionCost": "infinite",
				"totalCost": "infinite"
			},
			"external": {
				"bountiesByUser(address)": "2557",
				"claim(uint256[],address)": "infinite",
				"deposit()": "24463",
				"getAmountToClaim(uint256[1],address)": "infinite",
				"getAmountToClaimV(uint256[],address)": "infinite",
				"getNFTBalance(address)": "infinite",
				"lastMark(uint256)": "2451",
				"nft()": "2336",
				"owner()": "2374",
				"renounceOwnership()": "infinite",
				"setMarketing(address)": "26677",
				"setStuff(address)": "26700",
				"totalBounties()": "2373",
				"totalClaims()": "2374",
				"totalFunds()": "2373",
				"transferOwnership(address)": "infinite",
				"withdraw()": "infinite"
			}
		},
		"methodIdentifiers": {
			"bountiesByUser(address)": "ce2f2c25",
			"claim(uint256[],address)": "8c574b48",
			"deposit()": "d0e30db0",
			"getAmountToClaim(uint256[1],address)": "d4b7153e",
			"getAmountToClaimV(uint256[],address)": "793e91fa",
			"getNFTBalance(address)": "bf8ebd85",
			"lastMark(uint256)": "2c110641",
			"nft()": "47ccca02",
			"owner()": "8da5cb5b",
			"renounceOwnership()": "715018a6",
			"setMarketing(address)": "8b0414d5",
			"setStuff(address)": "3606880d",
			"totalBounties()": "85feeb23",
			"totalClaims()": "41c61383",
			"totalFunds()": "968ed600",
			"transferOwnership(address)": "f2fde38b",
			"withdraw()": "3ccfd60b"
		}
	},
	"abi": [
		{
			"inputs": [
				{
					"internalType": "address",
					"name": "_nftAddress",
					"type": "address"
				}
			],
			"stateMutability": "nonpayable",
			"type": "constructor"
		},
		{
			"anonymous": false,
			"inputs": [
				{
					"indexed": true,
					"internalType": "address",
					"name": "previousOwner",
					"type": "address"
				},
				{
					"indexed": true,
					"internalType": "address",
					"name": "newOwner",
					"type": "address"
				}
			],
			"name": "OwnershipTransferred",
			"type": "event"
		},
		{
			"inputs": [
				{
					"internalType": "address",
					"name": "",
					"type": "address"
				}
			],
			"name": "bountiesByUser",
			"outputs": [
				{
					"internalType": "uint256",
					"name": "",
					"type": "uint256"
				}
			],
			"stateMutability": "view",
			"type": "function"
		},
		{
			"inputs": [
				{
					"internalType": "uint256[]",
					"name": "_nfts",
					"type": "uint256[]"
				},
				{
					"internalType": "address",
					"name": "_user",
					"type": "address"
				}
			],
			"name": "claim",
			"outputs": [],
			"stateMutability": "nonpayable",
			"type": "function"
		},
		{
			"inputs": [],
			"name": "deposit",
			"outputs": [],
			"stateMutability": "payable",
			"type": "function"
		},
		{
			"inputs": [
				{
					"internalType": "uint256[1]",
					"name": "_nfts",
					"type": "uint256[1]"
				},
				{
					"internalType": "address",
					"name": "_user",
					"type": "address"
				}
			],
			"name": "getAmountToClaim",
			"outputs": [
				{
					"internalType": "uint256",
					"name": "",
					"type": "uint256"
				}
			],
			"stateMutability": "nonpayable",
			"type": "function"
		},
		{
			"inputs": [
				{
					"internalType": "uint256[]",
					"name": "_nfts",
					"type": "uint256[]"
				},
				{
					"internalType": "address",
					"name": "_user",
					"type": "address"
				}
			],
			"name": "getAmountToClaimV",
			"outputs": [
				{
					"internalType": "uint256",
					"name": "",
					"type": "uint256"
				}
			],
			"stateMutability": "view",
			"type": "function"
		},
		{
			"inputs": [
				{
					"internalType": "address",
					"name": "owner",
					"type": "address"
				}
			],
			"name": "getNFTBalance",
			"outputs": [
				{
					"internalType": "uint256",
					"name": "",
					"type": "uint256"
				}
			],
			"stateMutability": "view",
			"type": "function"
		},
		{
			"inputs": [
				{
					"internalType": "uint256",
					"name": "",
					"type": "uint256"
				}
			],
			"name": "lastMark",
			"outputs": [
				{
					"internalType": "uint256",
					"name": "",
					"type": "uint256"
				}
			],
			"stateMutability": "view",
			"type": "function"
		},
		{
			"inputs": [],
			"name": "nft",
			"outputs": [
				{
					"internalType": "contract GameItem",
					"name": "",
					"type": "address"
				}
			],
			"stateMutability": "view",
			"type": "function"
		},
		{
			"inputs": [],
			"name": "owner",
			"outputs": [
				{
					"internalType": "address",
					"name": "",
					"type": "address"
				}
			],
			"stateMutability": "view",
			"type": "function"
		},
		{
			"inputs": [],
			"name": "renounceOwnership",
			"outputs": [],
			"stateMutability": "nonpayable",
			"type": "function"
		},
		{
			"inputs": [
				{
					"internalType": "address",
					"name": "_marketing",
					"type": "address"
				}
			],
			"name": "setMarketing",
			"outputs": [],
			"stateMutability": "nonpayable",
			"type": "function"
		},
		{
			"inputs": [
				{
					"internalType": "address",
					"name": "_nftAddress",
					"type": "address"
				}
			],
			"name": "setStuff",
			"outputs": [],
			"stateMutability": "nonpayable",
			"type": "function"
		},
		{
			"inputs": [],
			"name": "totalBounties",
			"outputs": [
				{
					"internalType": "uint256",
					"name": "",
					"type": "uint256"
				}
			],
			"stateMutability": "view",
			"type": "function"
		},
		{
			"inputs": [],
			"name": "totalClaims",
			"outputs": [
				{
					"internalType": "uint256",
					"name": "",
					"type": "uint256"
				}
			],
			"stateMutability": "view",
			"type": "function"
		},
		{
			"inputs": [],
			"name": "totalFunds",
			"outputs": [
				{
					"internalType": "uint256",
					"name": "",
					"type": "uint256"
				}
			],
			"stateMutability": "view",
			"type": "function"
		},
		{
			"inputs": [
				{
					"internalType": "address",
					"name": "newOwner",
					"type": "address"
				}
			],
			"name": "transferOwnership",
			"outputs": [],
			"stateMutability": "nonpayable",
			"type": "function"
		},
		{
			"inputs": [],
			"name": "withdraw",
			"outputs": [],
			"stateMutability": "nonpayable",
			"type": "function"
		},
		{
			"stateMutability": "payable",
			"type": "receive"
		}
	]
}